:020000000C945E
:100002004F000C9400000C9400000C9400000C941F
:1000120000000C9400000C9400000C9400000C945E
:1000220000000C9400000C9400000C9400000C944E
:1000320000000C9400000C9400000C9400000C943E
:1000420000000C9400000C9400000C9400000C942E
:1000520000000C9400000C9400000C9400000C941E
:1000620000000C9400001027E80364000A0001005D
:100072000010000110000100EF000000000000006D
:100082000000000030F952D0999414F110900B0046
:1000920004007A000A00000386000000F894EE27AC
:1000A200EFBBF1E0F5BFE5BF8DE0A2E0BB27ED932A
:1000B2008A95E9F780E098E0A0E0B1E0ED9301973E
:1000C200E9F7E0E9F0E085919591009761F0A5915B
:1000D200B59105901590BF01F00105900D92019721
:1000E200E1F7FB01F0CFE0E0EEBBEFEFEDBFE8E0C0
:1000F200EEBFC0E0D3E00C949F00AA93E881E093A6
:100102007C0083E08A95F1F7E0917A00E064E09365
:100112007A00E0917A00E071E1F3E0917A00E06127
:10012200E0937A00E0917800F09179000C94540207
:10013200E5B5E560E5BDE0E0E6BD0895E0E8E09301
:100142006100E3E0E0936100EFE2E4B9E0E0E5B9E9
:10015200E8E3E7B9E0E0E8B9E0EEEAB9E0E0EBB9FC
:10016200E4BDE5E0E5BDE0E0E6BDE7BDE8BDE09366
:100172008000E0938100E0938500E0938400E093A7
:100182008700E0938600E0938900E0938800E09383
:100192008B00E0938A00E093B600E093B000E09316
:1001A200B100E093B200E093B300E093B400E093B7
:1001B2006E00E0936F00E0937000E0936900EDBB86
:1001C200E0936800E093C100E0E8E0BFE0E0E09384
:1001D2007F00E0937E00E0937C00E6E8E0937A0003
:1001E200E0E0E0937B00EAE5ECBDE1E0EDBDE0E0BC
:1001F200E093BC0039D112D19E2EE92CD92C98DF84
:10020200F3D0FAD0D9D0AE2DBB276ED0E6B5EA3FF7
:1002120020F004D19E2EE0E0E6BD0E9456020E942C
:10022200CD0224F40E94560214970CF002C05F9A89
:1002320015C00E945602159724F00E9456021B9781
:100242000CF003C05F9A5E9A0AC00E9456021B9786
:1002520024F05F9A5E9A5D9A03C05F985E985D98FB
:10026200CFCFFFCF0E945D0211F4459A18C0E23051
:10027200A0E0FA0711F45D9A12C0E330A0E0FA0799
:1002820011F45E9A0CC0E430A0E0FA0739F0E530D0
:10029200A0E0FA0721F4459A5D9A5E9A5F9A0C945F
:1002A20054020E945D0211F4459818C0E230A0E0A9
:1002B200FA0711F45D9812C0E330A0E0FA0711F4D6
:1002C2005E980CC0E430A0E0FA0739F0E530A0E017
:1002D200FA0721F445985D985E985F980C94540251
:1002E200449A089544980895BA93AA93A881B9812B
:1002F200E4E6F0E00E9464023E2EA881B981EAE0C1
:10030200F0E00E9464026E2EA881B981EAE0F0E07A
:100312000E94BC025E2EA881B981A436E0E0BE072D
:1003220019F40E946C0222C0A881B981A536E0E0CE
:10033200BE0720F0A73EE3E0BE0708F003C00E941C
:100342006C0214C0A881B9811A9730F0A881B981D2
:10035200A436E0E0BE0708F005C06A92A2E00E945F
:100362007C0204C0A881B9811A9720F45A92A3E0B2
:100372000E947C021FC00E945D0221F42898299AE3
:100382002A9A0FC0E230A0E0FA0721F4289A2998AD
:100392002A9A07C0E330A0E0FA0761F4289A299A62
:1003A2002A98E981F0E0E050FD4FA0810E944D02C1
:1003B200439A4398229608954C9902C055D013C08F
:1003C200489905C0E394E3940E9482020CC04999C3
:1003D20005C0EA94EA940E94820205C04A9903C0C9
:1003E2000E948202DE2C0895319904C079DFA5E0D3
:1003F20039DF01C077DF089532990EC071DFA2E0C4
:1004020050DFA3E04EDFA4E04CDFA8EBBBE00E948C
:100412008E02A1E046DF01C065DF08950E948602D8
:10042200E715F80511F4E9E10895AA24EAE0AE1609
:1004320088F40E9486027E1A8F0AE72DF82DAFEF0C
:10044200BFEF0E94A40279967E2E8F2EB70CC81C95
:10045200A394ECCFAB2DBC2DEAE0F0E00E94A90200
:10046200BE2ECF2E08950895289A29982A9AA42D4F
:100472000E944D02439A4398A5E0B0E00E948E028A
:1004820045985D985E985F984B99FECF459AA0ED8E
:10049200B7E00E948E020895AA93E881EEBDEDB501
:1004A200E7FFFDCFEEB521960895AD2DBB27E92DCF
:1004B200F0E0AE1BBF0B0895AA93E881F0E0E130B3
:1004C200A0E0FA0708950E94A902DF01EAE0F0E045
:1004D2000E94BC0208953A92A1E00E94BC01A5E0EC
:1004E200B0E00E948E026A92A2E00E94BC01A5E0E6
:1004F200B0E00C948E020E94BC01A5E0B0E00C9426
:100502008E02ACEDB5E00C948E02A0E00E947E005B
:100512007E2E8F2EE6EDF1E00895109639F08AEFE7
:1005220090E00197F1F7A8951197C9F70895F19511
:10053200E195F0400895FA9FF02DEB9FF00DEA9FB0
:10054200E02DF10D08951AD0F6DF0EF4F0DF0895D4
:100552000024112490E1AA0FBB1F001C111C0E1ACB
:100562001F0A18F40E0E1F1E01C0A1609A9599F77A
:10057200FD01D0010895ECDFFD010895E894F7FF35
:1005820002C0D5DF6894B7FF06C0A095B09511965A
:1005920000F8039400FA089500240A160B06089541
:00000001FF
