:040000000C944A0012
:100004000C9400000C9400000C9400000C9400006C
:100014000C9400000C9400000C9400000C9400005C
:100024000C9400000C9400000C9400000C9400004C
:100034000C9400000C9400000C9400000C9400003C
:100044000C9400000C9400000C9400000C9400002C
:100054000C9400000C9400000C9400000C9400001C
:100064000C9400001027E80364000A00010000104B
:10007400000110000100000030F952D0999414F1ED
:100084001090020003007A000A0000037C000000C4
:10009400F894EE27EFBBF1E0F5BFE5BF8DE0A2E0F9
:1000A400BB27ED938A95E9F780E098E0A0E0B1E002
:1000B400ED930197E9F7E6E8F0E0859195910097D3
:1000C40061F0A591B59105901590BF01F0010590DF
:1000D4000D920197E1F7FB01F0CFE0E0EEBBEFEF0B
:1000E400EDBFE8E0EEBFC0E0D3E00C947900E0E8B7
:1000F400E0936100E3E0E0936100EFE2E4B9E0E063
:10010400E5B9E8E3E7B9E0E0E8B9E0EEEAB9E0E050
:10011400EBB9E4BDE5BDE6BDE7BDE8BDE093800015
:10012400E0938100E0938500E0938400E0938700EE
:10013400E0938600E0938900E0938800E0938B00CD
:10014400E0938A00E093B600E093B000E093B1003E
:10015400E093B200E093B300E093B400E0936E0048
:10016400E0936F00E0937000E0936900EDBBE093CF
:100174006800E093C100E0E8E0BFE0E0E0937B00CA
:10018400E0937F00E0937A00E0E5ECBDE0E0EDBDB4
:10019400E093BC002898299A2A9AA09101030E940E
:1001A4001801289A29982A9AA09102030E941801FA
:1001B400489902C0A1E00ED0499902C0A2E00AD039
:1001C4004A9902C0A3E006D04C9902C0A4E002D030
:1001D400E1CFFFCFAA93E881F0E0E130A0E0FA0795
:1001E40011F4459A18C0E230A0E0FA0711F45D9AC0
:1001F40012C0E330A0E0FA0711F45E9A0CC0E430B8
:10020400A0E0FA0739F0E530A0E0FA0721F4459AB6
:100214005D9A5E9A5F9A0C941601AA93E881EEBDEA
:10022400EDB5E7FFFDCFEEB5219608950E940F01CD
:100234006E2E439A4398A5E0B0E00C9421011096E9
:1002440031F08AE28A95F1F7A8951197D1F70895CC
:00000001FF
