:080000000C9453000C94000065
:100008000C9400000C9400000C9400000C94000068
:100018000C9400000C9400000C9400000C94000058
:100028000C9400000C9400000C9400000C94000048
:100038000C9400000C9400000C9400000C94000038
:100048000C9400000C9400000C9400000C94000028
:100058000C9400000C9400000C9400000C94000018
:100068001027E80364000A000100001000011000D6
:100078000100EF000000000000000000000030F95F
:1000880052D0999414F1109002000B0004007A00E9
:100098000A00000386000100110390000000F89494
:1000A800EE27EFBBF1E0F5BFE5BF8DE0A2E0BB278F
:1000B800ED938A95E9F780E098E0A0E0B1E0ED9350
:1000C8000197E9F7E2E9F0E085919591009761F0F1
:1000D800A591B59105901590BF01F00105900D927D
:1000E8000197E1F7FB01F0CFE0E0EEBBEFEFEDBFEA
:1000F800E8E0EEBFC0E0D3E00C94A300AA93E88147
:10010800E0937C0083E08A95F1F7E0917A00E0645F
:10011800E0937A00E0917A00E071E1F3E0917A00EF
:10012800E061E0937A00E0917800F09179000C9416
:10013800F802E5B5E560E5BDE0E0E6BD0895E0E874
:10014800E0936100E0E0E0936100EFE2E4B9E0E011
:10015800E5B9E8E3E7B9E0E0E8B9E0EEEAB9E0E0FC
:10016800EBB9E4BDE4E0E5BDE0E0E6BDE7BDE8BD30
:10017800E0938000E0938100E0938500E0938400A1
:10018800E0938700E0938600E0938900E09388007D
:10019800E0938B00E0938A00E093B600E093B00010
:1001A800E093B100E093B200E093B300E093B400B1
:1001B800E0936E00E0936F00E0937000E0936900B5
:1001C800EDBBE0936800E093C100E0E8E0BFE0E049
:1001D800E0937F00E0937E00E0937C00E6E8E09304
:1001E8007A00E0E0E0937B00E8E5ECBDE1E0EDBDFE
:1001F800E0E0E093BC0092D1459AB6D19E2EE92C5E
:10020800D92C97DF4BD152D10AD1AE2DBB279FD025
:1002180003D0B8D1F7CFFFCFE6B5EA3F08F444C022
:10022800E0E0E6BDE0910A03EF5FE0930A03A091E6
:100238000A03A739C8F1E0E0E0930A0349D19E2EEA
:10024800E92C0E94FA026CF0A4E05ED00E9403033D
:10025800E1E0E0930B03E0910C03EF5FE0930C0304
:1002680023C00E94FA021CF40E9409030CF005C086
:100278000E9416030E94030317C00E9409031CF082
:100288000E941C030CF007C00E941603A3E01DD0B7
:10029800A2E03AD009C00E941C0334F00E94160361
:1002A800A3E013D0A2E011D0A0910B03A13021F458
:1002B800A0910C03A33008F407C0A1E025D0E0E02A
:1002C800E0930B03E0930C0308950E94290311F4B3
:1002D800459A18C0E230A0E0FA0711F45D9A12C0FE
:1002E800E330A0E0FA0711F45E9A0CC0E430A0E015
:1002F800FA0739F0E530A0E0FA0721F4459A5D9A4B
:100308005E9A5F9A0C94F8020E94290311F44598AA
:1003180018C0E230A0E0FA0711F45D9812C0E3308B
:10032800A0E0FA0711F45E980CC0E430A0E0FA07E8
:1003380039F0E530A0E0FA0721F445985D985E9819
:100348005F980C94F802449A089544980895BA93D3
:10035800AA93A881B981E4E6F0E00E9430033E2E1A
:10036800A881B981EAE0F0E00E9430036E2EA881EE
:10037800B981EAE0F0E00E9492035E2EA881B9817B
:10038800A436E0E0BE0719F40E94380322C0A88111
:10039800B981A536E0E0BE0720F0A73EE3E0BE073E
:1003A80008F003C00E94380314C0A881B9811A97C5
:1003B80030F0A881B981A436E0E0BE0708F005C096
:1003C8006A92A2E00E94480304C0A881B9811A97E2
:1003D80020F45A92A3E00E9448031FC00E942903F8
:1003E80021F42898299A2A9A0FC0E230A0E0FA0747
:1003F80021F4289A29982A9A07C0E330A0E0FA073E
:1004080061F4289A299A2A98E981F0E0E050FD4F92
:10041800A0810E94F102439A4398229608954C992C
:1004280002C07CD03AC0489904C0E3940E944E03AD
:1004380034C0499904C0EA940E944E032EC04A99D8
:1004480006C00E944E03DE2CAD2D82D026C04B99EB
:1004580024C0289A299A2A9AE0910E03EF5FE09324
:100468000E030E945803A0910E03A031B0F0E0E003
:10047800E0930D03A0910D03AA3060F464DF0E949D
:10048800580363DF0E945803E0910D03EF5FE09388
:100498000D03F0CFE1E0E0930F030895319904C014
:1004A80052DFA5E012DF01C050DF089532990EC077
:1004B8004ADFA2E029DFA3E027DFA4E025DFA8E8E0
:1004C800B3E10E946403A1E01FDF01C03EDF08958D
:1004D8000E945C03E715F80511F4E9E10895AA24E0
:1004E800EAE0AE1688F40E945C037E1A8F0AE72DB4
:1004F800F82DAFEFBFEF0E947A0379967E2E8F2EEC
:10050800B70CC81CA394ECCFAB2DBC2DEAE0F0E0EF
:100518000E947F03BE2ECF2E08950895289A299809
:100528002A9AA42D0E94F102439A4398A5E0B0E0CC
:100538000E9464035D985E985F98A0E1B7E20E940C
:1005480064034598E0E0E0930F034B99FECF0895CC
:10055800AA93E881A0E0B0E00E94AF03AAE0B0E06F
:100568000E9464030C94F8021A9310E0A0E0B0E033
:100578000E94A3031E2FAAE0B0E00E946403E12FAB
:1005880019910895A0910F03A13031F5A09110039E
:10059800BB27DDDE4C9902C0C1DF1DC0489908C0E9
:1005A800E0911003EF5FE09310030E94580313C01B
:1005B800499908C0E0911003E150E09310030E94AC
:1005C800580309C04A9907C0E0911003E09311034A
:1005D800E0E0E0930F03D6CF0895AA93E881EEBD3B
:1005E800EDB5E7FFFDCFEEB521960895AD2DBB27FC
:1005F800E92DF0E0AE1BBF0B0E94C0030895A3E0F5
:100608000E948801A2E00C948801AD2DBB27E92D3A
:10061800F0E0AE1BBF0BE0911103F0E03196AE178E
:10062800BF070895A1E00E946901A4E00C94690144
:10063800AD2DBB27E92DF0E0AE1BBF0BE0911103F8
:10064800F0E03296AE17BF070895AA93E881F0E06C
:10065800E130A0E0FA0708950E947F03DF01EAE095
:10066800F0E00E94920308953A92A1E00E94F201FC
:10067800A1E0B0E00E9464036A92A2E00E94F20145
:10068800A1E0B0E00C9464030E94F201A1E0B0E0A4
:100698000C946403A4ECB9E00E946403E0E0E093E6
:1006A8000A03E0930E030895A4ECB9E00C946403E4
:1006B800A0E00E9482007E2E8F2EE6EDF1E00895E4
:1006C800109639F08AEF90E00197F1F7A895119705
:1006D800C9F70895F195E195F0400895FA9FF02D36
:1006E800EB9FF00DEA9FE02DF10D08951AD0F6DF8B
:1006F8000EF4F0DF08950024112490E1AA0FBB1F27
:10070800001C111C0E1A1F0A18F40E0E1F1E01C021
:10071800A1609A9599F7FD01D0010895ECDFFD01DC
:100728000895E894F7FF02C0D5DF6894B7FF06C0C4
:10073800A095B095119600F8039400FA0895F999D8
:10074800FECFFF93FFB7F894A1BDB2BDF89AE0B50C
:10075800FFBFFF910895F99B02C0A895FCCF9FB7F2
:10076800F894A1BDB2BDF89A80B5E81719F0E0BDBC
:10077800FA9AF99A9FBF089500240A160B0608955D
:00000001FF
