:0E0000000C9446000C9400000C9400000C942C
:10000E0000000C9400000C9400000C9400000C9462
:10001E0000000C9400000C9400000C9400000C9452
:10002E0000000C9400000C9400000C9400000C9442
:10003E0000000C9400000C9400000C9400000C9432
:10004E0000000C9400000C9400000C9400000C9422
:10005E0000000C9400000C9400001027E8036400CC
:10006E000A000100001000011000010030F952D00A
:10007E00999414F110900A0000037A000000F8948D
:10008E00EE27EFBBF1E0F5BFE5BF8DE0A2E0BB27A9
:10009E00ED938A95E9F780E098E0A0E0B1E0ED936A
:1000AE000197E9F7E4E8F0E085919591009761F00A
:1000BE00A591B59105901590BF01F00105900D9297
:1000CE000197E1F7FB01F0CFE0E0EEBBEFEFEDBF04
:1000DE00E8E0EEBFC0E0D3E00C947500E0E8E093FA
:1000EE006100E3E0E0936100EFE2E4B9E0E0E5B93E
:1000FE00E8E3E7B9E0E0E8B9E0EEEAB9E0E0EBB951
:10010E00E4BDE5BDE6BDE7BDE8BDE0938000E0934C
:10011E008100E0938500E0938400E0938700E093F4
:10012E008600E0938900E0938800E0938B00E093D3
:10013E008A00E093B600E093B000E093B100E09344
:10014E00B200E093B300E093B400E0936E00E0934E
:10015E006F00E0937000E0936900EDBBE0936800E0
:10016E00E093C100E0E8E0BFE0E0E0937B00E093C5
:10017E007F00E0937A00E0E5ECBDE0E0EDBDE093BA
:10018E00BC00A4E602D0FDCFFFCFAA93A881B0E0B9
:10019E00E4E6F0E00E9430014E2EA881B0E0EAE0E5
:1001AE00F0E00E9430013E2EA881B0E0EAE0F0E0DF
:1001BE000E9463016E2EA881A43649F44A92A1E0F2
:1001CE000E9438013A92A2E00E9438010EC0A88126
:1001DE00AA3010F0A43608F005C03A92A2E00E94B0
:1001EE00380103C0A881AA3020F46A92A3E00E94CD
:1001FE0038010C942E01AA93E881F0E0E130A0E0E2
:10020E00FA0721F42898299A2A9A0FC0E230A0E022
:10021E00FA0721F4289A29982A9A07C0E330A0E019
:10022E00FA0761F4289A299A2A98E981F0E0E050B9
:10023E00FD4FA0810E942701439A4398229608956C
:10024E00AA93E881EEBDEDB5E7FFFDCFEEB52196A1
:10025E0008950E945E01DF01EAE0F0E00E94630172
:10026E0008950E940201A5E0B0E00C943E011096A4
:10027E0031F08AE28A95F1F7A8951197D1F7089592
:10028E00F195E195F04008950024112490E1AA0F14
:10029E00BB1F001C111C0E1A1F0A18F40E0E1F1E77
:1002AE0001C0A1609A9599F7FD01D001089512D071
:1002BE00EBDF0EF4E5DF0895E894B7FF04C0A095D8
:1002CE00B09511966894F7FDDBDFDEDFFD010EF4CD
:1002DE00D7DF0895E894F7FF02C0D2DF6894B7FF26
:1002EE0006C0A095B095119600F8039400FA0895F3
:00000001FF
